:020000040800F2
:10000000D008002001010008EB040008E304000808
:10001000E7040008BD030008B31300080000000057
:10002000000000000000000000000000390B000884
:10003000C103000800000000230A0008ED0C0008BE
:100040001B0100081B0100081B0100081B01000820
:100050001B0100081B0100081B0100081B01000810
:100060001B0100081B0100081B0100081B01000800
:100070001B0100081B0100081B0100081B010008F0
:100080001B0100081B0100081B0100081B010008E0
:100090001B0100081B0100081B0100081B010008D0
:1000A0001B0100081B0100081B0100081B010008C0
:1000B0001B010008C90D00081B0100081B010008F6
:1000C0001B0100081B0100081B0100081B010008A0
:1000D0001B0100081B0100081B0100083510000867
:1000E0001B0100081B0100081B010008DFF80CD0F1
:1000F00000F052F9004800472D150008D0080020F4
:100100000648804706480047FEE7FEE7FEE7FEE7B1
:10011000FEE7FEE7FEE7FEE7FEE7FEE7F10C00087C
:10012000ED000008F0B480EA0102D40F4200B2EB07
:10013000410F02D20246084611464A0042D0C30D82
:10014000DDB2C1F3C752AD1A202D35DAC1F3160165
:1001500041F4000204B15242C5F1200602FA06F150
:100160002A411044B3EBD05F23D0C4B1012DA0EBE2
:10017000C35009DCF0BC4FF0004202EAC352DBB2CC
:1001800000F5000000F0DAB8400000F1807000EBEC
:10019000C350A0F1807040EAD170490009E04908DD
:1001A00041EAC071A0EBC35000F50000400800EB2D
:1001B000C350F0BC00F0B9B86142012202EB41012A
:1001C000001BF6E7F0BC704781F00041AAE780F021
:1001D0000040A7E780EA010210B502F000434000AA
:1001E00022D04A001FD0010E01EB1261C0F356006D
:1001F000C2F3560240F4000042F40002A0FB0220C9
:1002000000047F39140400D0401C50EA124001D48D
:100210004000491EC2B20C0604EBD010401C40083E
:10022000802A02D003E0002010BD20F00100002948
:1002300000DA0020184310BD30B480EA010202F059
:10024000004530F0004221F0004013D090B1C30DC2
:10025000D40DC2F31601C0F31600E41A41F40001F4
:1002600040F400027D34914201D3641C00E0490057
:10027000002C02DA30BC002070474FF4000000234D
:10028000914201D3891A034340084FEA4101F7D153
:1002900051B1914202D14FF0004105E002D24FF03E
:1002A000010101E06FF0010103EBC450284430BCB0
:1002B00000F03BB8C10F80EAE0700844CA079623FB
:1002C000002100F03BB896230022114600F036B81A
:1002D00000F0004220F00040C10DC0F3160040F4D1
:1002E00000007F2901DA00207047962903DCC1F164
:1002F0009601C84001E096398840002AF4D0404277
:10030000704720F00040C10DC0F3160040F400001B
:100310007F2901DA00207047962903DCC1F196019C
:10032000C84070479639884070470029A8BF704779
:10033000401C490008BF20F00100704710B4B0FA1B
:1003400080FC00FA0CF050EA010404BF10BC7047B6
:1003500049B1CCF1200421FA04F411FA0CF118BFD0
:10036000012121430843A3EB0C01CB1D4FEA00619F
:100370004FEA102042BF002010BC704700EBC35072
:1003800010440029A4BF10BC7047401C490008BF9E
:1003900020F0010010BC7047064C074D06E0E068F5
:1003A00040F0010394E8070098471034AC42F6D3BC
:1003B000FFF7A0FE741E0008941E000800BFFEE7B1
:1003C00070472DE9F0410246002500260020002359
:1003D0000024002791F803C00CF00F0591F803C02A
:1003E0000CF0100CBCF1000F03D091F802C04CEAE5
:1003F000050591F800C0BCF1000F31D01468002051
:100400002BE04FF0010C0CFA00F3B1F800C00CEA3D
:1004100003069E4220D183004FF00F0C0CFA03F725
:10042000BC4305FA03FC4CEA040491F803C0BCF198
:10043000280F06D14FF0010C0CFA00FCC2F814C0D2
:100440000AE091F803C0BCF1480F05D14FF0010C50
:100450000CFA00FCC2F810C0401C0828D1D314606C
:10046000B1F800C0BCF1FF0F34DD546800202EE06D
:1004700000F1080C4FF0010808FA0CF3B1F800C0C5
:100480000CEA03069E4221D183004FF00F0C0CFAB8
:1004900003F7BC4305FA03FC4CEA040491F803C0DB
:1004A000BCF1280F05D100F1080C08FA0CF8C2F8CD
:1004B000148091F803C0BCF1480F07D100F1080C7B
:1004C0004FF0010808FA0CF8C2F81080401C082808
:1004D000CED35460BDE8F0810AB1016100E0416112
:1004E000704700BFFEE700BFFEE7704770B5002110
:1004F00000230F22C47804B3154C246804F4E0648C
:10050000C4F5E064210AC1F10403CA40447804FA46
:1005100003F184781440214309010E4C0678A1555B
:10052000047804F01F050124AC4005786D11AD007E
:1005300005F1E025C5F8004109E0047804F01F0545
:100540000124AC40044D0678761145F8264070BD74
:100550000CED00E000E400E080E100E0024901432E
:10056000024A1160704700000000FA050CED00E03F
:1005700000200CE0002106E00022064B03EBC01334
:100580005A544A1CD1B28029F6DB421CD0B208284A
:10059000F0DB70476C0000202DE9F04304460D4667
:1005A00016461F46284638E0224631E0002A2DDB59
:1005B0007F2A2BDC002829DB3F2827DC4FEAE07C60
:1005C00000EB5C7C4FEAEC0CDFF8588008EBCC1CAD
:1005D0001CF802C003464FEAE07800EB58784FEA77
:1005E000E808A0EBC8094FF0010808FA09F82CEA5E
:1005F000080C01464FEAE07800EB58784FEAE8082B
:10060000DFF8209009EBC81808F802C0511C0AB2A4
:10061000A1199142CADC411C08B2E9198142C3DC2C
:10062000BDE8F0836C00002038B5002406E000250A
:1006300000E06D1CB5F57A7FFBD3641CB4F57A7FBE
:10064000F5D30121082000F0FDF914208DF80300F6
:1006500003208DF802000120ADF80000694608482B
:10066000FFF7AFFE0220ADF8000069460448FFF72F
:10067000A8FE012000F09AF9012000F0A1F938BD90
:10068000000C014070B50546002411E08021214195
:10069000294009B1012100E00021084600F090F94D
:1006A000012000F083F9002000F080F9601CC4B242
:1006B000082CEBDB012000F079F9002000F076F93E
:1006C00070BD10B5012000F07BF9012000F06EF93B
:1006D000002000F075F9002000F068F910BD10B599
:1006E000002000F06DF9012000F060F9012000F019
:1006F00067F910BD10B5FFF797FFAE2000F06AF95B
:10070000D52000F067F9802000F064F9A82000F0FF
:1007100061F93F2000F05EF9D32000F05BF9002082
:1007200000F058F9402000F055F9A12000F052F9EE
:10073000C82000F04FF9DA2000F04CF9122000F048
:1007400049F9812000F046F9CF2000F043F9D92083
:1007500000F040F9F12000F03DF9DB2000F03AF91B
:10076000302000F037F9A42000F034F9A62000F082
:1007700031F98D2000F02EF9142000F02BF9AF2074
:1007800000F028F9FFF7F4FE00F0FCF810BD10B5FA
:100790000246012000E050430B1EA1F10101FAD1F5
:1007A00010BD70B505460C4645F0B00000F012F9DA
:1007B000102141EA141000F00DF904F00F0000F0D0
:1007C00009F970BDF8B506460F4614461D46082DBA
:1007D0000CD1A4F120000E4901EB001010230822D7
:1007E00039460090304600F017F80FE0062D0DD185
:1007F000A4F1200000EB4000064901EB4000082373
:10080000062239460090304600F006F8F8BD000098
:1008100048160008381C00082DE9FF4F80460E4698
:100820009146DDF834B0002500244A463146404662
:10083000039BFFF7B1FE00BF5EE0002558E008EB28
:100840000500002852DB08EB05007F284EDC30460F
:10085000F11706EB5171C9100FB2F11706EB517188
:10086000C910A6EBC10A002E05DA781E07B20AF1FC
:1008700008000FFA80FA3819002817DB3819072802
:1008800014DC3819224901EBC01008EB0501405C6B
:1008900004FB09511BF8011001FA0AF10843391948
:1008A0001B4A02EBC11108EB050288543819401CA1
:1008B00000281BDB3819401C072817DC3819401C9E
:1008C000134901EBC01008EB0501405C04FB095122
:1008D0001BF80110CAF10802114108433919491CDB
:1008E0000B4A02EBC11108EB05028854681CC5B223
:1008F0004D45A4DB601CC4B20399481EC11700EB30
:100900005171012202EBE101A14296DCBDE8FF8FAB
:100910006C0000202DE9F04F80468A4615461E46A1
:10092000DDF82490002D07DB4B462B225146404634
:10093000FFF748FF2F4606E04B462D225146404622
:10094000FFF740FF6F42002418E0301B411E0A20D1
:10095000FFF71DFFB7FBF0F00A21B0FBF1F201FB3E
:10096000120000F1300B611C01FB098108B24B46FB
:100970005A465146FFF726FF601CC4B2B442E4DB7E
:10098000BDE8F08F10B500240BE000212046FFF7F2
:1009900008FF054901EBC410802100F02BF8601C12
:1009A000C4B2082CF1DB10BD6C00002010B5044669
:1009B000224601210148FFF78FFD10BD000C0140C8
:1009C00010B50446224602210148FFF785FD10BDFF
:1009D000000C014010B50446FFF773FE7820FFF7C6
:1009E00051FE0020FFF74EFE2046FFF74BFEFFF7BB
:1009F00076FE10BD70B505460E46FFF762FE782004
:100A0000FFF740FE4020FFF73DFE002404E0285D94
:100A1000FFF738FE601CC4B2B442F8DBFFF75FFE9C
:100A200070BD704729B1064AD2690243044BDA61AE
:100A300004E0034AD2698243014BDA617047000047
:100A40000010024029B1064A92690243044B9A61A0
:100A500004E0034A92698243014B9A6170470000A7
:100A60000010024030B500210022002400232D4D4B
:100A70006D6805F00C0121B1042905D0082923D1A6
:100A800005E0294D056022E0274D05601FE0254D5A
:100A90006D6805F47012234D6D6805F480340225ED
:100AA00005EB92421CB9214D554305600BE01D4DED
:100AB0006D6805F400351DB11C4D5543056002E01D
:100AC000194D5543056002E0174D056000BF00BF9A
:100AD000144D6D6805F0F0010909154D6B5C056852
:100AE000DD4045600F4D6D6805F4E061090A104D69
:100AF0006B5C4568DD4085600A4D6D6805F46051AA
:100B0000C90A0B4D6B5C4568DD40C560054D6D68DD
:100B100005F44041890B074D6B5CC568B5FBF3F5E7
:100B2000056130BD0010024000127A0000093D004E
:100B300000000020100000207047000008B50121CF
:100B40000420FFF77FFF01210820FFF77BFF0C2027
:100B5000ADF8000018208DF8030003208DF8020086
:100B600069460248FFF72DFC08BD0000000801405F
:100B700010B5FFF7E3FF472142F20F7000F0E8F8ED
:100B800010BD00002DE9F04104460B492046FFF757
:100B900053FB80460949FFF71DFB07460849FFF74D
:100BA000C1FA0646FFF7ADFB85B229464FF08040FB
:100BB00000F0EBF9BDE8F081000034430000E144AF
:100BC000000016442DE9F04104460B492046FFF78A
:100BD00033FB80460949FFF7FDFA07460849FFF74E
:100BE000A1FA0646FFF78DFB85B229464FF08040FB
:100BF00000F0C9F9BDE8F081000034430000E14491
:100C00000000164410B500F001F810BD0CB500202E
:100C1000019000903348006840F48030314908600A
:100C200000BF3048006800F4003000900198401C7C
:100C30000190009818B90198B0F5A06FF1D129483A
:100C4000006800F4003010B10120009001E00020A5
:100C500000900098012843D12348006840F010001C
:100C6000214908600846006820F003000860084633
:100C7000006840F0020008601A484068194948605E
:100C80000846406848600846406840F48060486014
:100C90000846406820F47C1048600846406840F4EC
:100CA000E81048600846006840F08070086000BFA7
:100CB0000C48006800F000700028F9D0094840682E
:100CC00020F00300074948600846406840F00200F1
:100CD000486000BF0348406800F00C000828F9D1C4
:100CE0000CBD0000001002400020024070470000D0
:100CF00010B51348006840F001001149086008462B
:100D00004068104908400E494860084600680E498E
:100D100008400B4908600846006820F480200860FD
:100D20000846406820F4FE0048604FF41F008860C9
:100D3000FFF768FF4FF000600449086010BD000035
:100D4000001002400000FFF8FFFFF6FE08ED00E093
:100D500030B587B005460C4601210846FFF762FE14
:100D6000ADF81450ADF810400020ADF81600ADF805
:100D7000120004A94FF0804000F00AF96020ADF89D
:100D800000000120ADF802000020ADF8080069461F
:100D90004FF0804000F052F869464FF0804000F07C
:100DA000A7F80821C80600F099F80821C80600F045
:100DB000DDF80121880700F015F80121880700F00F
:100DC00020F807B030BD000010B50121044800F044
:100DD00024F818B10121024800F010F810BD0000FD
:100DE0000004004021B1028842F08002028004E049
:100DF00002884FF67F731A4002807047CA4302820E
:100E0000704721B1028842F00102028004E00288AA
:100E10004FF6FE731A400280704730B5024600203C
:100E200000230024158A05EA0103958905EA0104D7
:100E300013B10CB1012000E0002030BD70B50024DA
:100E400000220023058C4FF6FF6635400584028C96
:100E50008388848B4FF68F752C404FF6FC752C40A1
:100E60000D882C434FF6FF552A400D894FF6FF762B
:100E700006EA05252A434D8806EA05252A43154D2D
:100E8000A84202D0144DA8421DD14FF2FF752A404E
:100E90004D894FF6FF7606EA05252A434FF6FF35C2
:100EA0002A408D8806EA05252A434EF6FF752B4019
:100EB0004DF6FF752B408D8906EA05152B43CD892C
:100EC00006EA05152B4383808483CD8885870284B9
:100ED00070BD0000002C0140003401400A46002192
:100EE000818B4FF6F77319401143818370470000DF
:100EF00070B5002200230024058C4EF6FF763540A5
:100F00000584038C8488828B48F6FF752A404FF64F
:100F1000FF452A400D884FF6FF7606EA05252A434D
:100F20004DF6FF752B400D8906EA05352B434D889C
:100F300006EA05352B430B4DA84202D00A4DA842C4
:100F400008D14BF6FF752C408D894FF6FF7606EAE7
:100F500085152C4384808283CD88A0F8405003847B
:100F600070BD0000002C0140003401400A46002101
:100F7000818B4FF2FF7319404FF6FF7303EA022390
:100F800019438183704781877047A0F840107047EC
:100F9000002202881D4B98420ED01D4B98420BD068
:100FA000B0F1804F08D01B4B984205D01A4B9842A5
:100FB00002D01A4B984204D14FF68F731A404B88D7
:100FC0001A43174B984207D0164B984204D04FF65D
:100FD000FF431A40CB881A4302808B8883850B8895
:100FE00003850A4B98420BD0094B984208D00E4B10
:100FF000984205D00D4B984202D00D4B984201D13A
:101000000B7A03860123838270470000002C014085
:10101000003401400004004000080040000C004083
:101020000010004000140040004001400044014016
:101030000048014070B5002540F22551324800F0CB
:10104000F8F8012852D1304800F0AEF9C4B22F4868
:101050000078401C2D4908702D48007848B9FF2CB5
:101060003AD12C480078002836D101202849087050
:1010700032E027480078012822D12B2C06D102200B
:101080002349087001202449087025E02D2C05D142
:1010900002201F490870204908701DE03B2C06D132
:1010A00002201B49087003201B49087014E03D2CE6
:1010B00012D10220164908700420174908700BE06D
:1010C00013480078022807D1144804700120114900
:1010D000087000200E49087020210B4800F078F8B5
:1010E00040F22551084800F07CF800BF4FF45871D9
:1010F000054800F091F830B10821034800F068F885
:10110000014800F051F970BD004800401700002070
:101110001500002014000020180000206C0400209E
:1011200000B587B001218804FFF77CFC012108206D
:10113000FFF788FC4FF48060ADF8180018208DF898
:101140001B0002208DF81A0006A91F48FFF739F985
:101150004FF40060ADF8180004208DF81B0006A9BC
:101160001948FFF72EF94FF48060FFF7F7F92720B1
:101170008DF8040004208DF8050001208DF806008C
:101180008DF8070001A8FFF7B1F94FF496400290DF
:101190000020ADF80C00ADF80E00ADF81000ADF871
:1011A00014000C20ADF8120002A9084800F090F8D5
:1011B000012240F22551054800F065F8012103485D
:1011C00000F01EF807B000BD000C014000480040D0
:1011D00001F40072B2F5007F00D100BFCA43028063
:1011E000704710B50022002340F66A14A14200D1D6
:1011F00000BF0A1201249440A3B2DC43048010BD56
:1012000021B1828942F40052828104E082894DF644
:10121000FF731A408281704702460020B1F5007FBB
:1012200000D100BF13880B400BB1012000E000206B
:10123000704770B50246002400230025002040F6C8
:101240006A16B14200D100BFC1F3421501F01F037D
:10125000012606FA03F3012D02D19689334006E0F8
:10126000022D02D1168A334001E0968A33400C12D7
:10127000012606FA04F41688344013B10CB101209B
:1012800000E0002070BDF0B50346002400260025D4
:10129000002040F66A17B94200D100BF1846C1F3DA
:1012A000421401F01F06012707FA06F5012C01D1AF
:1012B0000C3004E0022C01D1103000E014301AB1DF
:1012C00007682F43076002E00768AF430760F0BD7F
:1012D0002DE9F04786B005460E460024A24600BF21
:1012E000A1460027B08900B100BF2F462C8A4CF6DA
:1012F000FF700440F08804432C82AC894EF6F31052
:101300000440B08831890843718908430443AC81A3
:10131000AC8A4FF6FF400440B0890443AC8201A878
:10132000FFF7A0FB1F48874202D1DDF810A001E0C3
:10133000DDF80CA0A88900F4004040B10AEBCA0017
:1013400000EB0A1031684900B0FBF1F807E00AEB46
:10135000CA0000EB0A1031688900B0FBF1F8642084
:10136000B8FBF0F004012009642101FB1089A88971
:1013700000F4004040B1322000EBC900B0FBF1F0B6
:1013800000F00700044308E0322000EB091064215C
:10139000B0FBF1F000F00F0004432C8106B0BDE873
:1013A000F08700000038014001468888C0F308003B
:1013B000704700BFFEE702E008C8121F08C1002AFC
:1013C000FAD170477047002001E001C1121F002AC6
:1013D000FBD170472DE9F05F04460D4629462046B3
:1013E000FEF7F2FE20490860204801684FF0804077
:1013F000FEF7F0FE83461C4801685846FEF7E7FEFC
:1014000082461B4801685046FEF78CFE814619480B
:1014100001684846FEF7DEFE074614480168164894
:101420000068FEF7D7FE8246104801680E48006843
:10143000FEF7CAFE8346114801685846FEF7CAFE09
:1014400081465146FEF76EFE80463946FEF76AFE3B
:1014500006460548006805490860084600680449D2
:1014600008603046BDE8F09F600000206400002066
:10147000680000205C00002058000020540000207C
:101480002DE9F05F04460D4629462046FEF79CFEF6
:1014900020490860204801684FF08040FEF79AFE1E
:1014A00083461C4801685846FEF791FE82461B4859
:1014B00001685046FEF736FE8146194801684846E5
:1014C000FEF788FE07461448016816480068FEF7D4
:1014D00081FE8246104801680E480068FEF774FEDF
:1014E0008346114801685846FEF774FE814651460E
:1014F000FEF718FE80463946FEF714FE06460548FC
:1015000000680549086008460068044908603046DC
:10151000BDE8F09F480000204C0000205000002053
:1015200044000020400000203C00002008B5FFF7E8
:101530001FFBFFF7F5FDFFF7DDF874E03A48007890
:10154000401C394908703948007888B30020384970
:1015500008603849086038480078012806D0022819
:101560000BD0032811D004281ED115E03349087888
:10157000FEF7A9FE2E49086016E030490978484276
:10158000FEF798FE2A4908600EE02C490878FEF71D
:101590009AFE2849086007E0284909784842FEF782
:1015A00089FE2449086000BF00BF00201F49087061
:1015B00000211F480068FFF70DFF00211C4800684C
:1015C000FFF708FF04461E4801682046FEF7AAFD03
:1015D0001B490860002117480068FFF751FF0021F0
:1015E00014480068FFF74CFF04461648016820467F
:1015F000FEF798FD1349086011480068FFF7C2FA2A
:1016000010480068FFF7DEFA09480068FEF760FE40
:101610000446082005232246102100900846FFF7C3
:1016200079F9FFF7AFF989E72C00002014000020BA
:101630003000002034000020180000206C0400203E
:101640001C00002038000020000000000000000006
:101650000000000000000000000000F80000000092
:10166000000000333000000000160E00160E0000CF
:10167000000000000000000040C07840C07840003A
:10168000043F04043F040400007088FC083000009C
:10169000001820FF211E0000F008F000E0180000F4
:1016A00000211C031E211E0000F0088870000000AD
:1016B0001E21232419272110000000160E0000000F
:1016C0000000000000000000000000E0180402001C
:1016D000000000071820400000020418E00000008D
:1016E0000040201807000000404080F0804040008B
:1016F0000202010F01020200000000F000000000E1
:101700000101011F010101000000000000000000B4
:1017100000B07000000000000000000000000000A9
:1017200000010101010101010000000000000000B2
:10173000003030000000000000000000806018044D
:10174000006018060100000000E010080810E0002A
:10175000000F102020100F00001010F800000000F3
:101760000020203F2020000000700808088870003A
:1017700000302824222130000030088888483000BA
:101780000018202020110E000000C02010F80000DA
:1017900000070424243F240000F808888808080073
:1017A0000019212020110E0000E010888818000088
:1017B000000F112020110E0000380808C83808005A
:1017C0000000003F000000000070880808887000DA
:1017D000001C222121221C0000E010080810E0005B
:1017E0000000312222110F00000000C0C0000000E4
:1017F0000000003030000000000000C0C000000009
:10180000000080B070000000000080402010080040
:1018100000010204081020004040404040404000C9
:1018200004040404040404000008102040800000A4
:101830000020100804020100007048080808F000A9
:101840000000003036010000C030C828E810E00079
:101850000718272423140B000000C038E000000004
:10186000203C23020227382008F88888887000006E
:10187000203F202020110E00C03008080808380042
:10188000071820202010080008F808080810E000B9
:10189000203F202020100F0008F88888E80810005A
:1018A000203F20202320180008F88888E80810002E
:1018B000203F200003000000C03008080838000066
:1018C00007182020221E020008F808000008F80867
:1018D000203F210101213F20000808F808080000EE
:1018E0000020203F2020000000000808F808080021
:1018F000C08080807F00000008F888C02818080099
:10190000203F20012638200008F8080000000000D1
:10191000203F20202020300008F8F800F8F80800C8
:10192000203F003F003F200008F830C00008F808C2
:10193000203F200007183F00E01008080810E000D2
:101940000F10202020100F0008F808080808F000E9
:10195000203F210101010000E01008080810E0000C
:101960000F18242438504F0008F8888888887000A1
:10197000203F2000030C3020007088080808380041
:101980000038202121221C00180808F80808180037
:101990000000203F2000000008F808000008F808B8
:1019A000001F202020201F000878880000C8380869
:1019B000000007380E010000F80800F80008F800E1
:1019C000033C0700073C030008186880806818087B
:1019D00020302C03032C30200838C800C8380800F9
:1019E0000000203F2000000010080808C838080048
:1019F0002038262120201800000000FE02020200EC
:101A00000000007F40404000000C30C0000000009B
:101A1000000000010638C00000020202FE000000C3
:101A2000004040407F000000002010080408102003
:101A300000000000000000000000000000000000A6
:101A40008080808080808080000204080000000088
:101A50000000000000000000000080808080000086
:101A60000019242222223F2008F800808000000074
:101A7000003F112020110E00000000808080000037
:101A8000000E112020201100000000808088F80046
:101A9000000E112020103F20000080808080000078
:101AA000001F222222221300008080F088888818DC
:101AB0000020203F202000000000808080808000E7
:101AC000006B94949493600008F80080808000007C
:101AD000203F210000203F20008098980000000057
:101AE0000020203F20200000000000809898000087
:101AF00000C08080807F000008F8000080808000A7
:101B0000203F24022D302000000808F800000000CB
:101B10000020203F20200000808080808080800086
:101B2000203F20003F20003F008080008080000098
:101B300000203F2100203F200000808080800000A6
:101B4000001F202020201F008080008080000000D7
:101B500080FFA12020110E00000000808080800006
:101B6000000E112020A0FF808080800080808000F7
:101B700020203F2120000100000080808080800024
:101B80000033242424241900008080E08080000099
:101B90000000001F202000008080000000808000E6
:101BA000001F202020103F20808080000080808047
:101BB00000010E30080601008080008000808080D7
:101BC0000F300C030C300F000080800080808000FC
:101BD0000020312E0E312000808080000080808027
:101BE00080818E70180601000080808080808000D7
:101BF0000021302C2221300000000000807C0202F5
:101C000000000000003F404000000000FF00000016
:101C100000000000FF0000000002027C80000000C5
:101C20000040403F000000000080404080000080F5
:101C300000000000000101000000000000000000A2
:101C4000002F000000000700070000147F147F141D
:101C500000242A7F2A1200231308646200364955A3
:101C6000225000000007000000001C22410000007C
:101C700041221C000014083E08140008083E080811
:101C8000000000A06000000808080808000060606C
:101C90000000002010080402003E5149453E0000AB
:101CA000427F4000004261514946002141454B318D
:101CB000001814127F10002745454539003C4A4959
:101CC00049300001710905030036494949360006CB
:101CD0004949291E00003636000000005636000033
:101CE00000081422410000141414141400004122AE
:101CF0001408000201510906003E4955592E007C86
:101D00001211127C007F49494936003E414141226F
:101D1000007F4141221C007F49494941007F090958
:101D20000901003E4149497A007F0808087F000008
:101D3000417F4100002040413F01007F08142241C3
:101D4000007F40404040007F020C027F007F04087B
:101D5000107F003E4141413E007F09090906003ED7
:101D60004151215E007F0919294600464949493100
:101D70000001017F0101003F4040403F001F204023
:101D8000201F003F4038403F0063140814630007E1
:101D90000870080700615149454300007F41410038
:101DA000000204081020000041417F0000040201ED
:101DB00002040040404040400000010204000020B6
:101DC00054545478007F48444438003844444420F4
:101DD00000384444487F00385454541800087E09A1
:101DE00001020018A4A4A47C007F08040478000069
:101DF000447D4000004080847D00007F1028440026
:101E00000000417F4000007C04180478007C080436
:101E1000047800384444443800FC24242418001872
:101E2000242418FC007C080404080048545454205E
:101E300000043F444020003C4040207C001C2040E7
:101E4000201C003C4030403C004428102844001C2A
:101E5000A0A0A07C004464544C440000087F4100D2
:101E60000000007F00000000417F08000008040817
:101E700010080000941E0008000000206C00000004
:101E8000B6130008001F00086C0000206408000062
:101E9000C61300080000000001020304010203044D
:101EA0000607080902040608000000000000000000
:101EB0000000B4420000A04100000000000000004B
:101EC0000000000000000000000000000000000012
:101ED0000AD7A33B4260653B6F12033C0000000041
:101EE0000000000000000000A69B443B0AD7A33B73
:101EF00000000000000000000000000000000000E2
:04000005080000ED02
:00000001FF
